:100000000C94A1030C94E8030C94E8030C941A17C5
:100010000C94E8030C94E8030C94E8030C94E803B4
:100020000C94E8030C94E8030C94F22D0C94C62E67
:100030000C949B240C94E8030C94E8030C94E803C0
:100040000C94E8030C94E8030C94E8030C94E80384
:100050000C94E8030C94E6240C94E8030C94E80355
:100060000C94E8030C94E8030C94E8030C94E80364
:100070000C94E8030C94E8030C94E8030C94E80354
:100080000C94E8030C94E8030C94E8030C94E80344
:100090000C94E8030C94E8030C94E8030C94E80334
:1000A0000C94E8030C94E8030C94E803636977006C
:1000B000796977000102E3630103E3000102E0785C
:1000C0000103E00029001E001F0020002100220083
:1000D000000000002B0014001A0008001500170093
:1000E00000000000E30004001600070009000A00F9
:1000F00000000000E1001D001B00060019000500C3
:10010000000000000000E0000251E2002C000000AE
:1001100000000000230024002500260027002D00F9
:100120002E0031001C0018000C00120013002F00DC
:10013000300035000B000D000E000F0033003400BE
:1001400028002A0011001000360037003800E500B2
:1001500001510000280003510000E600E400000007
:100160000000000003533A003B003C003D003E000D
:100170000000000001000100010001000100010079
:10018000000000000100810080007F00F400F50005
:1001900000000000010001002A5D295D010001004E
:1001A000000000000000010001000100010000004B
:1001B000000000003F0040004100420043004400B6
:1001C0004500010001000100010001000100520092
:1001D00001004C00010001004A004B0050004F009C
:1001E00001000100010001004D004E00510001001E
:1001F00001000000010001000000010001000000FA
:100200000000000003533A003B003C003D003E006C
:1002100000000000010001000100010001000100D8
:10022000000000000100810080007F00F400F50064
:1002300000000000010001002A5D295D01000100AD
:1002400000000000000001000100010001000000AA
:10025000000000003F004000410042004300440015
:100260004500010001000100010001000100010042
:1002700001004C005000510052004F0001000100ED
:100280000100010001000100010001000100010066
:100290000100000001000100000001000100000059
:1002A00000000000035300000000000000000000F8
:1002B000000000000000000000000000000000003E
:1002C000000000000000000000000000000000002E
:1002D000000000000000000000000000000000001E
:1002E000000000000000000000000000000000000E
:1002F00000000000000000000000000000000000FE
:10030000000000000000240025002600000000007E
:100310000000005C0000210022002300000000001B
:1003200001002A0027001E001F002000000000001E
:1003300000000000000000000000000000000000BD
:100340000000000000000000000000002A2B280030
:100350000000000000000000000000000000002974
:10036000000000002C1E3420212224342627252EB4
:10037000362D3738271E1F202122232425263333EC
:10038000362E37381F0405060708090A0B0C0D0E18
:100390000F101112131415161718191A1B1C1D2FE4
:1003A0003130232D350405060708090A0B0C0D0E04
:1003B0000F101112131415161718191A1B1C1D2FC4
:1003C0003130354C0000000000000000000000004B
:1003D00000000000000000007E0F00D4FFFFFFC7F8
:1003E0000000007832190A00047F3F1F6432146451
:1003F0003214783C1E1E140A052223252628292A99
:100400002C2D2F3032333536383A3B3D3E40424377
:100410004547494A4C4E5051535557595A5C5E60B6
:1004200062646668696B6D6F71737577797B7D7FC8
:1004300081838587898A8C8E90929496989A9C9EC7
:100440009FA1A3A5A7A8AAACAEAFB1B3B4B6B8B9E3
:10045000BBBCBEBFC1C2C3C5C6C7C9CACBCCCDCE4B
:10046000D0D1D2D2D3D4D5D6D7D7D8D9D9DADADB2E
:10047000DBDBDCDCDCDCDCDDDDDDDDDCDCDCDCDCBA
:10048000DBDBDBDADAD9D9D8D7D7D6D5D4D3D2D2F9
:10049000D1D0CECDCCCBCAC9C7C6C5C3C2C1BFBEE1
:1004A000BCBBB9B8B6B4B3B1AFAEACAAA8A7A5A34C
:1004B000A19F9E9C9A98969492908E8C8A8987850B
:1004C00083817F7D7B79777573716F6D6B696866EA
:1004D0006462605E5C5A5957555351504E4C4A49BC
:1004E00047454342403E3D3B3A3836353332302F64
:1004F0002D2C2A292826252322FFAA7F55400001DA
:1005000001010101010101010202020202020202D3
:1005100002030303030303030304040404040404A5
:100520000505050505060606060607070707070869
:10053000080808090909090A0A0A0B0B0B0C0C0C1C
:100540000D0D0D0E0E0E0F0F0F10101111111212B6
:1005500013131414151516161717181819191A1A33
:100560001B1B1C1D1D1E1E1F202021222223242494
:10057000252626272829292A2B2C2D2D2E2F3031D0
:100580003232333435363738393A3B3C3D3E3F40E2
:100590004142434445464748494A4C4D4E4F5051CD
:1005A0005354555658595A5B5D5E5F616264656687
:1005B00068696B6C6D6F7072737577787A7B7D7E0E
:1005C0008082838587888A8C8E8F91939596989A5E
:1005D0009C9EA0A2A3A5A7A9ABADAFB1B3B5B7BA76
:1005E000BCBEC0C2C4C6C9CBCDCFD1D4D6D8DBDD4A
:1005F000DFE2E4E7E9EBEEF0F3F5F8FAFDFF0403E0
:10060000300000000A03370073006B006200000036
:100610001E03530061006C006900630079006C00E8
:10062000690063005F00410063006900640000002E
:100630000403090409023B00020100A0C8090400E8
:1006400000010301010009211101000122400007FE
:1006500005810308000A09040100010300000009E4
:1006600021110100012281000705820320000A12E6
:1006700001100100000008D8045FEB07000102032D
:100680000105010902A10185020901A1000509195D
:100690000129051500250195057501810295017552
:1006A0000381010501093009311581257F95027506
:1006B00008810609381581257F9501750881060591
:1006C0000C0A38021581257F950175088106C0C086
:1006D00005010980A101850319012AB7001501262A
:1006E000B700950175108100C0050C0901A10185B5
:1006F0000419012AA002150126A002950175108196
:1007000000C005010906A101050719E029E7150048
:10071000250195087501810295017508810105077C
:10072000190029FF150026FF0095067508810005B0
:100730000819012905950575019102950175039127
:1007400001C011241FBECFEFDAE0DEBFCDBF04B67B
:1007500003FE27C080917D0390917E03A0917F03CB
:10076000B09180038730904BA740B04BD1F41092EA
:100770007D0310927E0310927F031092800314BEBB
:1007800084B7877F84BF0FB6F894A89580916000E6
:10079000886180936000109260000FBEE0E0F8E393
:1007A000099512E0A0E0B1E0E2E4F4E602C00590B1
:1007B0000D92A031B107D9F723E0A0E1B2E001C06A
:1007C0001D92AD37B207E1F70E94322B0C94E33152
:1007D0000C9400000895FC0180818230B1F48AE419
:1007E0000E9466198AE40E94FD1981EE0E94661932
:1007F0008DE40E9466198DE40E94FD1981EE0E942D
:10080000FD198CEB90E00C948D050895FC0180811E
:100810008230D9F483EE0E94661980E50E94661941
:1008200080E50E94FD1980E50E94661980E50E941E
:10083000FD1981EE0E9466198FE40E9466190E94DC
:10084000E21C84EB90E00C948D0508950895CF92FE
:10085000DF92EF92FF926B017C010E9403238130B3
:1008600039F08330B1F020E040E060E080E004C087
:1008700020E04FEF6FEF8AEA0E94080D64E081E00C
:100880000E949F0AC701B601FF90EF90DF90CF90C2
:10089000089520E04FEF6FEF8FEBEECFFB01883232
:1008A0002DE5920731F128F4833C9C4579F081E0F5
:1008B000089589322DE5920721F18A329D45B9F7D5
:1008C00082818823A9F08CEA90E020C0828188236D
:1008D00079F0809129030E94D8100E94C81080915D
:1008E0004103869590E090932A038093290380E04A
:1008F000089582818823E1F30E94EF0A0E94DB10B1
:10090000EECF82818823A1F380EB90E00E948D05D9
:10091000EECF81E008950C944E0408950C948D045C
:100920001F93CF93DF9300D000D00F92CDB7DEB7E7
:1009300049835A836B8330918A0289819A8131116C
:100940001DC06623B9F02223A9F00E94BC21182FF4
:10095000682F89819A810E94672169817A81812F1C
:100960000F900F900F900F900F90DF91CF911F91EC
:100970000C940B060E949421182FEFCF0E94BC21EB
:1009800069817A81EDCFFC01262F408151816281FE
:10099000738184810C949004CF93DF93EC0160E029
:1009A0000E94C304BE01DF91CF910C948E04FF928C
:1009B0000F931F93CF93DF93E82FF0E0EC5BFC4F96
:1009C000F490C82FC695C695C695D0E0FE01EC52AE
:1009D000FC4F0491877010E0082E02C01595079512
:1009E0000A94E2F701701127CC53DC4FFE01C49149
:1009F000D0E002C0D595C7958A95E2F7C170DD2792
:100A00000115110519F081EE0E946619209719F061
:100A100086EE0E9466198F2D0E94531ACD2B19F075
:100A200086EE0E94FD19012B41F081EEDF91CF91FE
:100A30001F910F91FF900C94FD19DF91CF911F91A1
:100A40000F91FF900895EF92FF920F931F93CF9312
:100A5000DF938C01F62E8AE0E82EF801849188233A
:100A600009F454C0813009F04DC0E8012196FE011F
:100A70008491813091F42196FE0184910E94531A51
:100A80008E010F5F1F4F8F2D815038F3EFE9FFE08C
:100A90003197F1F700C00000F7CF823039F4E80158
:100AA0002296FE0184910E946619EACF833039F4C0
:100AB000E8012296FE0184910E94FD19E1CF843065
:100AC000F9F6E8012296FE01249190E080E0FE0113
:100AD00031962053330B2A30310548F0019780F2CC
:100AE000EFE9FFE03197F1F700C00000F7CFE89E93
:100AF000A001E99E500D1124C901840F951F249176
:100B0000EF01E5CF0E94D704E801BACFDF91CF9182
:100B10001F910F91FF90EF90089560E00C942305D2
:100B20000E945023811102C00E94ED230C941808EA
:100B30000E940D160C941B0808950C949C0581E0EE
:100B400008950C949F05CF93C82F0E949D058C2F6C
:100B5000CF910C94A10508950E94E21C0E94AB0560
:100B60002FEF84E39CE0215080409040E1F700C0EB
:100B700000000C940A250F931F93CF93DF93EC0191
:100B800061E00E94C3048C01BE010E946D15BE018C
:100B9000C8010E948B04882389F1BE01C8010E940C
:100BA000B315882359F1BE01C8010E946E13882332
:100BB00029F1BE01C8010E94C0138823F9F0BE01CB
:100BC000C8010E94E3148823C9F0BE01C8010E9435
:100BD0004812882399F08A81882339F001158CE521
:100BE000180751F00E3D1C4579F0CE01DF91CF91F1
:100BF0001F910F910C9489040E94AC0580E0DF9155
:100C0000CF911F910F9108950E94ED23F7CF90E0AF
:100C100080E008950895E72FF0E09AE0899FE00DC5
:100C2000F11D112483E0EE0FFF1F8A95E1F7E60F17
:100C3000F11DEE0FFF1FEC53FF4F85919491089526
:100C4000FC01EE0FFF1FEC51FC4F8591949108952C
:100C5000CF93DF930E940B060E943D07EC018115A4
:100C600020E5920708F042C0811530E4930708F0B0
:100C7000BDC0883E910528F5803E910508F09DC0D5
:100C8000883A910588F4853A910508F08FC0813043
:100C9000910509F492C0009709F48FC0049708F0F9
:100CA0008CC0D0E0C0E089C08F3B910508F489C0BA
:100CB000805C9109C03CD105A0F30E942006EC01A4
:100CC0007CC08115904250F4C11581E0D80708F02E
:100CD00074C0C03FD10528F3D0656FC0C11590E343
:100CE000D90708F079C0CE019F70E7CF811525E5BF
:100CF000920758F5811534E5930708F0A6C08115D1
:100D000042E5940750F4C11581E5D80708F471C095
:100D1000DC2FCC27C16FD06A50C0982F969596953E
:100D20009E0123703327C115D34508F07FC0C1E071
:100D3000D0E002C0CC0FDD1F2A95E2F720E2929F9F
:100D4000C0011124C82BD92B6FC0C11589E5D80764
:100D5000A8F4C11598E5D90708F07CC0C11526E5AF
:100D6000D20708F09ECF8C2F0E94D407C82FD0E066
:100D7000DC2FCC27CC27DF71D0621FC0C1153AE52C
:100D8000D30708F46CC0CE0190568115904208F04C
:100D900088CF8D2F8F710E94D40790E0982F8827DD
:100DA00088279F719C012C2BE901E6CFC55AD0E022
:100DB000CC56DE4FC881D0E0D064CE01DF91CF9118
:100DC0000895C85AD0E0CC0FDD1FCA59DE4F0990F4
:100DD000D881C02DD464F1CFCE019927D3FF03C0B1
:100DE000EC01D86CEACFEC01D06CE7CFDF70D06AB1
:100DF000E4CFCE01E4E096958795EA95E1F783701C
:100E00002C2F26952695237090E2299F900111247E
:100E1000382B8C2F8370C1E0D0E002C0CC0FDD1FD7
:100E20008A95E2F7C22BD32BDC68C7CFC1E0D0E0B4
:100E300002C0CC0FDD1F2A95E2F730E2939FC0017C
:100E40001124C82BD92BDA68B8CFD82FCC27C46F80
:100E5000D06AB3CFDC2FCC27C06FD06AAECF8C2F37
:100E60008F700E94D40734E0D695C7953A95E1F784
:100E7000CF709C2FEC01D069A0CF82389105B1F1E1
:100E8000B0F48133910509F475C048F489329105B5
:100E900009F469C08A32910509F473C00895853355
:100EA000910509F459C08933910501F10895833EF4
:100EB0009105A9F138F4803E9105F9F0823E910543
:100EC00049F10895863E9105A9F1873E9105C9F142
:100ED000843E910519F520916F0321FF1FC0809179
:100EE0006E0384FD14C087EE90E0089520916E0398
:100EF0002370A1F080EE90E0089520916E0320FD14
:100F000047C030916F0330FF09C024FF44C090E018
:100F100080E004C020916E0322FDF7CF0895209158
:100F20006E0322FD3BC030916F0330FDE3CF24FF01
:100F3000F5CFEDCF20916E0323FFF0CF24FDE7CF57
:100F4000D2CF20916E0323FD2CC030916F0331FF6F
:100F5000EECF84EE90E0089520916E0325FFDECF62
:100F600089E290E0089520916E0325FFD7CF85E3B5
:100F700090E0089520916E0326FFD0CF8AE290E0A2
:100F8000089520916E0326FFC9CF81E390E0089574
:100F900089E390E0089583EE90E0089582EE90E07A
:100FA000089586EE90E0089590916E0392FF06C03A
:100FB000282F28712830F9F4877F846093FF06C0BA
:100FC000282F28712831F1F4877E846120916F03E6
:100FD00020FF06C0382F38713830D9F4877F816000
:100FE00021FF06C0282F28712831D1F4877E816126
:100FF00094FD877E0895282F24712430F9F68B7F85
:101000008860DCCF282F2471243101F78B7E886122
:10101000DDCF382F3171313019F78E7F8860E0CF06
:10102000282F2171213121F78E7E8861E1CF08952B
:101030000C94170808950C941A08E82FF0E0EB5C64
:10104000FC4F80810895089580EA8A95F1F708950C
:1010500008950E948909809130018091300195E0C6
:10106000811190E09093400385E0891B80933F03BA
:10107000AFE9B1E061E070E08D91E82FE295EF70AB
:10108000F0E041A18F709B0101C0220F8A95EAF721
:10109000922F9095942391A382A1822B82A381E029
:1010A000A43AB80749F7A7E9B1E061E070E08D9193
:1010B000E82FE295EF70F0E041A18F709B0101C035
:1010C000220F8A95EAF7922F9095942391A382A1FB
:1010D000822B82A381E0AF39B80749F7EBE2F3E056
:1010E000A5E3B3E085E393E011921D928E179F076D
:1010F000D9F785E00E942F090E9490050C949E0963
:101100000E946D098823F9F080913F0390E08B5C89
:101110009C4F0E94CE09811113C0809110028F5FF5
:1011200080931002863050F0E0913F03F0E0EB5CDA
:10113000FC4F108211821282138214820C94980543
:1011400010921002FBCF8091400390E08B5C9C4F8B
:101150000E94EB090C9428088F929F92AF92BF9245
:10116000CF92DF92EF92FF920F931F93CF93DF9373
:101170008FE9A82E81E0B82E0BE213E0912CCC244D
:10118000C394D12CF50181915F01C82FC295CF7016
:10119000D0E099A18F70760101C0EE0C8A95EAF734
:1011A000892F8E2989A38AA18E2C809488218AA3D5
:1011B0000E942408E7E9F1E050E040E020E03191AE
:1011C000A32FA295AF70B0E090968C9190E03F7005
:1011D00002C0959587953A95E2F780FD3CC08C2D2D
:1011E000042E01C0880F0A94EAF7282B4F5F5F4F47
:1011F0004830510521F789A1882289A28AA1E82ACD
:10120000EAA2F8018081281741F1208381E0982A21
:101210000F5F1F4FF4EAAF16F1E0BF0609F0B2CF3F
:101220006091400370E06B5C7C4F292D45E08BE2C0
:1012300093E00E9430090E948008892DDF91CF91B0
:101240001F910F91FF90EF90DF90CF90BF90AF90E4
:101250009F908F90089580E0C8CF80E0D8CF089508
:10126000FF920F931F93CF93DF93F82E092F162F22
:10127000D72FC42F222349F081E0809313020E94CC
:10128000CB24909312028093110280911302882341
:10129000A1F080911102909112020E94D7244597EB
:1012A00060F0EF2DF02FA12FBD2FCE0FDF2FD11D1E
:1012B000EC17FD0741F410921302DF91CF911F91BB
:1012C0000F91FF90089581918D93F2CF26982E98DB
:1012D00083B186FB882780F90895809114028111DB
:1012E00011C08091D80080618093D8008AE18A95EE
:1012F000F1F700C09091D900892F817090FF82E0B2
:101300008093140281E090911402913009F080E002
:1013100008950E946609809330018091300166E053
:10132000882349F080E00E949A0A0E946D09882370
:1013300021F00C94A50986E0F6CF08950E946D096E
:10134000811102C00C94AB09089562E070E081E362
:1013500091E00C94C71662E070E081E391E00C9498
:10136000D0160E940F10882361F08CE192E00E9459
:10137000151081E090E00E94A917892B11F40C94BC
:101380001210089580911B02883039F460E08CE1DE
:1013900092E00E94251110921B020895CF93DF93D3
:1013A000D82FC92F0E94B10990E080E00E94A917B0
:1013B000009779F4ED2FFC2FDC01AA5EBD4F2C9134
:1013C0002193019685309105B9F781E0DF91CF91A6
:1013D000089580E0FBCFCF93DF93D82FC92F0E94D1
:1013E000C209ED2FFC2F90E080E02191DC01AA5E84
:1013F000BD4F2C93019685309105B9F7DF91CF91C0
:101400000895EF92FF920F931F93CF93DF93EB0119
:10141000E82FD11110C0442321F0F0E0E250FB4F3F
:10142000E4916E2F7E2F8E2FDF91CF911F910F9120
:10143000FF90EF9008950D2F10E0282F30E0442307
:1014400029F022503B4FF901249130E0F6E0CF9F84
:10145000C0011124EFEFF0E0BF010E949230AB0118
:101460008C2F90E0880F991FA5E5A49FB001A59F40
:10147000700D1124861B970B982F990F980FBF01A1
:10148000601B710B629FD001639FB00D729FB00D06
:1014900011248B2F9D9FB0011124672F7727EF0117
:1014A000C61BD70BBE01629FE001639FD00D729FE8
:1014B000D00D11247F01E91AF108E09EB001E19EF0
:1014C000700DF09E700D1124672F7727E61BF70B28
:1014D000E29F8001E39F100DF29F100D1124E12F78
:1014E000722F4230510599F048F44115510569F0C9
:1014F0004130510581F0EB2F8D2F07C0443051054D
:1015000069F080F046305105B1F76E2F8DCFE22F94
:101510007B2F812FFACFE22F7D2FF7CFEB2F822F5A
:10152000712FF3CF7B2F822FED2FEFCF41E00C9463
:10153000010A0895E4E4F1E08083618308958C302A
:1015400070F4482F460F5527551F4D3051053CF478
:1015500080934601860F8093470160934801089568
:10156000CF93DF93762FE901682F842F0E94960A8C
:10157000798368838A83DF91CF910895453B08F092
:1015800044EB0C94B00A80914103982F9E7F61F444
:10159000817082608093410380914403853B18F001
:1015A00084EB8093440308958635B0F3817084659D
:1015B000F1CF88E090E00C948431CF92DF92EF92EB
:1015C000FF926B017C010E94C30AB701A60188E06B
:1015D00090E0FF90EF90DF90CF900C94A231E1E487
:1015E000F3E083E0808311828FEF828384EB838337
:1015F0001482ADE6B2E012968C9112978360129637
:101600008C9360817181828193810C94DD0A809139
:10161000410380FF02C08695089580E0089590916F
:101620004503933018F49F5F90934503882351F04E
:101630006091410370914203809143039091440370
:101640000C94DD0A089581E00C940F0B90914503F2
:10165000992319F0915090934503882351F060919C
:1016600041037091420380914303909144030C9491
:10167000DD0A089581E00C94260B70E00C94B712FB
:10168000609145018091410380FF0AC0809144012F
:1016900023E0829FC00111248A5B9C4F0C943D0B78
:1016A000809146019091470123E0829FF00111242F
:1016B000EA5BFC4F891750F71182108212828F5F0C
:1016C0003396F8CF9091410390FF14C0909146015A
:1016D0002091470133E0939FF0011124EA5BFC4F16
:1016E000921710F00C94400B8183608342839F5FBC
:1016F0003396F6CF0895CF93DF9300D00F92CDB7F6
:10170000DEB79091410390FF0AC09E012F5F3F4FCB
:101710000E94BE0A4B8169818A810E94620B0F90F0
:101720000F900F90DF91CF910895CF93DF93EC014D
:10173000EC81F0E0E750FC4F4491E1E4F3E062819A
:1017400081810E947B0B8C818F5F8C83DF91CF9195
:101750000895CF93DF93EC01E1E4F3E043816281EC
:101760008C810E947B0B8C818F5F8C83DF91CF916A
:1017700008950F931F93CF93DF9300D00F92CDB7AF
:10178000DEB78C018091240281110AC09E012F5F77
:101790003F4F44EB6FEF0E94BE0A8A818093240280
:1017A000F8016481613069F08091240240E0662391
:1017B00061F040E0623011F44091240280E060E08A
:1017C00004C06091240240E080E00E94620BF801B6
:1017D000848190E0019663E070E00E94A6308483EB
:1017E0000F900F900F90DF91CF911F910F9108955F
:1017F000AF92BF92CF92DF92EF92FF920F931F931F
:10180000CF93DF9300D00F92CDB7DEB7182FF62E0F
:10181000042FE22E9091410390FF3AC0E92FE69504
:10182000AE2FB0E0A755BE4F8C9180936D029E7F86
:101830009230E1F59E012F5F3F4F812F0E94BE0A3B
:101840004B8169818A810E94620B809142038113DE
:1018500008C0809143038F1104C080914403801716
:1018600029F080916F02826080936F02109342038F
:10187000F092430300934403EE2051F06091410342
:101880007091420380914303909144030E94DD0ACA
:101890000F900F900F90DF91CF911F910F91FF90BC
:1018A000EF90DF90CF90BF90AF900895823019F401
:1018B00000914403CACF863019F410914203C5CF7A
:1018C0008930D9F3893109F6E9518E2F8170D82EEC
:1018D000E695F0E0E750FB4FA590B490C12CBB24F7
:1018E00060914801C61618F00E94400BAECF2C2D17
:1018F00030E0A29EC001A39E900DB29E900D1124D7
:1019000070E00E949230812FD11013C0860F409159
:101910004601420F532F511D9A01220F331F240FEE
:10192000351F2A5B3C4F402F6F2D0E94BE0AC39487
:10193000D7CF861BECCFE1E4F3E09181282F4381E0
:1019400062818AE0890F0C94F80B81E00C949B0C67
:10195000E1E4F3E09181282F4381628186EF890FD2
:101960000C94F80B81E00C94A80CE1E4F3E06281A4
:1019700021E1620F08F46FEF282F438181810C94DD
:10198000F80B81E00C94B50CE1E4F3E0628121E115
:10199000621B08F460E0282F438181810C94F80BCE
:1019A00081E00C94C40CE1E4F3E0438121E1420FB7
:1019B00008F44FEF282F628181810C94F80B81E0AD
:1019C0000C94D30CE1E4F3E0438121E1421B08F4E1
:1019D00040E0282F628181810C94F80B81E00C9407
:1019E000E20C20E00C94F80B9091410390FF0FC0A3
:1019F0002C3068F430E0F901EE0FFF1FE20FF31F07
:101A0000EA5BFC4F8183608342830C94400B089512
:101A10001F93CF93DF9300D00F92CDB7DEB7122F75
:101A20009091410390FF0BC09E012F5F3F4F0E949A
:101A3000BE0A212F4B8169818A810E94F40C0F908C
:101A40000F900F90DF91CF911F910895EF92FF9229
:101A50001F93CF93DF93EC0110E0EE24EA94F12C76
:101A600060914801161770F00E94400B9A818C819A
:101A700090FF27C08F5F8C83DF91CF911F91FF90E4
:101A8000EF90089520914601422F410F5527551F91
:101A9000CA019A01220F331F280F391F2A5B3C4FBE
:101AA00070E0C7010E94A630962F8C8140914403BC
:101AB00060914303199F800D11240E94BE0A1F5F8D
:101AC000CFCF8150D8CF8F929F92AF92BF92CF92BB
:101AD000DF92EF92FF920F931F93CF93DF93EC016E
:101AE0008A81BB24BA9480FD02C0BB24B3948C814C
:101AF00081110AC081E0B8122AC08091480181504A
:101B00008093260281E08C83A12C4CE0942E80915E
:101B10004801A816F8F00E94400B8091260291E03F
:101B2000B91261C081115AC08091480181508093DF
:101B300026021C82DF91CF911F910F91FF90EF90B1
:101B4000DF90CF90BF90AF909F908F9008951092AC
:101B50002602D8CF00914601CA2CD12C0C0D1D2D88
:101B6000111DC801880F991F080F191F0A5B1C4F10
:101B7000F80111821082128234E0E32EF12C812CC4
:101B800080912602880D8D301CF1692D0E948430D1
:101B9000892F082E000C990BC816D90691F4809154
:101BA00044038E9DA0018F9D500D1124559547959E
:101BB00055954795980160914303809142030E9497
:101BC000BE0A8B0CF1E0EF1AF108D1F6A3949FCF77
:101BD00087FFDFCF90914801890FDBCF8150809341
:101BE0002602BC82A7CF90E001966091480170E088
:101BF0000E94A630809326028C839CCFEF92FF92A6
:101C00000F931F93CF93DF93EC018C81811109C057
:101C100081E08C831092250292E09093430180939F
:101C20004201809146019091470123E0829FF0019B
:101C30001124EA5BFC4F891768F110E003E0609122
:101C40004801161768F10E94400B809142012091D3
:101C50002502280F2093250290914301980F90931D
:101C60004301191654F4022E000C330B4091480125
:101C70004150550B2417350734F08195809342016C
:101C8000813009F41C82DF91CF911F910F91FF9059
:101C9000EF9008951182108212828F5F3396CBCF1E
:101CA000E12EF12C70E0C7010E94A6302091460180
:101CB000820F482F50E020912502022E000C330B9A
:101CC000E216F306BCF020914301022E000C330B08
:101CD0002E153F057CF0809F900111242A5B3C4F1C
:101CE0004091440360914303809142030E94BE0AE5
:101CF0001F5FA5CFFA01EE0FFF1FE40FF51FEA5B90
:101D0000FC4F118210821282F3CF8F929F92AF927A
:101D1000BF92CF92DF92EF92FF920F931F93CF93D8
:101D2000DF93EC014C81042F10E09801D8010E9450
:101D3000EA309B01AC010E9400314B015C01E0E202
:101D4000F0E0E01BF10BA5E5B0E0AC019B010E94C7
:101D500000316B017C019F01DF010E94E2309B0199
:101D6000AC010E940B319B01AC01280D391D4A1DAD
:101D70005B1DC701B6010E94BA30F22E822F90E09F
:101D800039E23F1560F143E0249F9001112435951D
:101D90002795122F109500E085E5E82EEF18809129
:101DA0004801081758F10E94400B9C8181E099235B
:101DB00019F0903219F48FEF809341018091410125
:101DC000890F8C83DF91CF911F910F91FF90EF903E
:101DD000DF90CF90BF90AF909F908F90089525E5B2
:101DE00030E0B901681B790B9B01220F331F260FCE
:101DF000371F37FFCCCF2F5F3F4FC9CF8E2D01FD4F
:101E00008F2D20914601622F600F7727771F9B014E
:101E1000220F331F260F371F2A5B3C4F412F609143
:101E200043030E94BE0A0F5FBACF0F931F93CF9355
:101E3000DF93EC0110E000E090914801901711064B
:101E400009F06CF40E94400B8C8190E00196817047
:101E500099278C83DF91CF911F910F910895209145
:101E60004601A801420F511D9A01220F331F240F72
:101E7000351F2A5B3C4F4C816091430380914203A4
:101E800096959017110651F04CF0442349F040917B
:101E900044030E94BE0A0F5F1F4FCECF4423B9F305
:101EA00040E0F7CF8F929F92AF92BF92CF92DF9296
:101EB000EF92FF920F931F93CF93DF93FC01B280B9
:101EC000948081E0848300E015E05BE4A52E882403
:101ED0008394EE24EA94F12C7BE4C72ED12C8091DC
:101EE0004801081770F0DF91CF911F910F91FF907B
:101EF000EF90DF90CF90BF90AF909F908F900C9419
:101F0000400BC02FD0E01C9FF0011D9FF00D11244D
:101F1000E65DFD4F91101CC0138212822091460194
:101F2000CE01820F911D9C01220F331F280F391FF4
:101F30002A5B3C4F1C9FF0011D9FF00D1124E65DB4
:101F4000FD4F4281618180810E94BE0A0F5FC7CF31
:101F50002381222379F12150238334818A2D821B0E
:101F6000311101C0822F1C9FF0011D9FF00D112423
:101F7000E65DFD4F90914403899FC0011124B60195
:101F80000E9492306283211104C0332311F0148225
:101F9000A38222E02B1510F21C9FF0011D9FF00D73
:101FA0001124E65DFD4F80914203808380914303BD
:101FB0008183B4CF0E945F31823091400CF0AECF6C
:101FC00082E08B1530F50E945F31B7010E94A63088
:101FD0001C9FF0011D9FF00D1124E65DFD4F8083D5
:101FE00022E02B15C8F40E945F312091430326950F
:101FF000622F70E00E94A630280F1C9FF0011D9FE9
:10200000F00D1124E65DFD4F21831282A3828482AC
:1020100085CF80914203DCCF20914303EECF8091A6
:102020006F02089510926F02089525E0E1E4F3E055
:10203000DC0101900D922A95E1F720916D0230911B
:102040006E0240916F02FC01258336834783089519
:10205000EDE6F2E011828281846082830895E1E4FA
:10206000F3E080818E7F80830E942810EDE6F2E00D
:102070008281816082832FEF80E792E0215080404F
:102080009040E1F700C000000C94400BE1E4F3E065
:1020900080818E7F808360817181828193810E94A3
:1020A000DD0A0E942810EDE6F2E0828181608283E1
:1020B0002FEF80E792E0215080409040E1F700C090
:1020C00000000C94400B60914103669570E04BE07A
:1020D00050E089E491E00E946F31892B19F481E08E
:1020E00080936E020E94CB249093670280936602D5
:1020F00080916F02846080936F02089590914103F4
:1021000090FF3AC0917081112DC09260909341036D
:1021100080916F02816080936F02662351F060911D
:1021200041037091420380914303909144030E94C4
:10213000DD0A60914103669570E04BE050E089E470
:1021400091E00E946F31892BA1F00E94281081E05C
:10215000809369024091440360914303809142035C
:102160000C94F10C8B3210F09465D0CF880F982B23
:10217000CDCF0E946310EBCF0895682F909141035B
:10218000969581E0890F8B3208F081E00C947E10E7
:1021900081E00C94BD10682F9091410396958FEFCC
:1021A000890F09F48AE20C947E1081E00C94CB1024
:1021B00061E00C947E10E1E4F3E080818160808333
:1021C00086950C94D8108091410380FD0C944610A4
:1021D0000C94DB1060E00C947E1080916C028111F5
:1021E00033C00E945023811104C00E94ED230E943D
:1021F000EF0A0E94D90A60934103709342038093CF
:1022000043039093440380916F02836080936F0235
:102210006E7F61F40E94EF0A0E94D90A6093410325
:102220007093420380934303909344030E94C30A34
:102230000E9428108091410380FF03C086950E9470
:10224000EA1081E080936C0208951F93CF93DF938F
:10225000EC01162F8F8180FF0CC0888180FF24C085
:1022600080914103816080934103888186950E941B
:102270007E108F8181FF06C0212F4B816A81898169
:102280000E94F80B8F8182FF05C08E81882379F030
:102290000E9463108F8183FF03C081E080936902F5
:1022A000DF91CF911F9108950E942F10E2CF0E94DD
:1022B0002810F0CFEF92FF920F931F93CF93DF93ED
:1022C00080916E02882309F468C080916D02E091CC
:1022D0004103E695E81BE0936802823009F064C090
:1022E000F0E0EB50FC4FE491CE2FD0E005E91BE08D
:1022F00080916902882389F0109269020E94CB24A0
:102300009E0120953095820F931F909367028093D2
:10231000660210926B0210926A028091660290919E
:1023200067020E94D7248C179D07B8F1809129027B
:102330008823B1F0109229028091270290912802FF
:102340000E94D7248033954758F00E94CB24909365
:1023500028028093270280916F02886080936F0229
:10236000E0906A02F0906B02E0916602F0916702E1
:10237000CE0FDF1FD0936702C093660286E692E01D
:10238000F801099580916A0290916B02892B29F4DA
:10239000EF2819F081E080932902DF91CF911F91FE
:1023A0000F91FF90EF900895863049F4F0E0EE50E1
:1023B000FC4FE491CE2FD0E009EA1BE099CF8930A1
:1023C00051F4E695F0E0E151FC4FE491CE2FD0E0DE
:1023D00006E21DE08DCF8F3051F4E695F0E0E45138
:1023E000FC4FE491CE2FD0E003E61DE081CF853194
:1023F00049F4F0E0E751FC4FE491CE2FD0E00EEF2E
:102400001DE076CFC8E2D0E005E81EE0883109F48F
:102410006FCF833239F4E7EEF3E0C591D49109EB45
:102420001BE066CFC4EFD1E005E11FE0843209F480
:102430005FCFC0EDD7E009E91AE0853209F058CF47
:102440008E2F63E00E947830E92FF0E0EC51FC4FD2
:10245000E491CE2FD0E002E51FE04ACFFA018111CE
:1024600001C0FB010994CF93DF93C82FD62F0E94A0
:10247000070B8C1740F00E94070B8D1720F4DF919B
:10248000CF910C94C8108C2FDF91CF910C94D81061
:102490001F93CF93DF93EC01FB011281111110C048
:1024A0000E9451228272FE01E25CFC45E431F1059A
:1024B00008F05BC0EB51FE4C0C94DC300E94E31042
:1024C000812FDF91CF911F91089545ED50E168EC88
:1024D00070E10E942E12F4CF48EC50E165ED70E1FE
:1024E000F8CF42EB5CE065EA7CE0F3CF45EA5CE0E4
:1024F00062EB7CE0EECF40ED5CE061EC7CE0E9CFAC
:1025000041EC5CE060ED7CE0E4CF4EEE5CE06FED32
:102510007CE0DFCF4FED5CE06EEE7CE0DACF4AE3AB
:102520005BE063E27BE0D5CF43E25BE06AE37BE024
:10253000D0CF81E00E94D810C3CF65E082E00E9436
:102540003312BECF68E086E0FACF6EE089E0F7CFC5
:1025500064E18FE0F4CF67E185E1F1CF88E1EACF74
:1025600062E289E1ECCF83E2E5CF11E0A9CF539A93
:102570004BB1477F5BB15860EFB7F8949B01220FD6
:10258000331F260F371F280F391F2817390741F42B
:10259000EFBF8FE594E00197F1F700C000000895C8
:1025A000DC016D91CD0178E05BB9000000C067FFF0
:1025B0004BB9660F000000C000C000C04BB900C09E
:1025C0007A9591F7E2CFAF92BF92CF92DF92EF92DE
:1025D000FF920F931F93CF93DF937C015B01C42F76
:1025E000D22FFC0182818823F9F0409372020E946D
:1025F000CB24909371028093700280E28C0F88301C
:1026000008F061C0C77081E001C0880FCA95EAF781
:10261000DF91CF911F910F91FF90EF90DF90CF90BE
:10262000BF90AF900C94661A10917202141340C0C0
:1026300080917002909171020E94D7246C01B701C1
:10264000C5010E94461FC816D90690F5C0E2CD0FFD
:102650001D17B9F080E2810F883040F4177081E0D7
:1026600001C0880F1A95EAF70E946D1AC83048F425
:1026700081E09D2F977001C0880F9A95EAF70E941C
:10268000661A802F0E94531AC830E8F4D77081E090
:1026900001C0880FDA95EAF7DF91CF911F910F9172
:1026A000FF90EF90DF90CF90BF90AF900C946D1A99
:1026B00080E28C0F883038F4C77081E001C0880F49
:1026C000CA95EAF7E9CFDF91CF911F910F91FF9063
:1026D000EF90DF90CF90BF90AF9008950F939C0143
:1026E000CB01233F4CE5340759F1A8F4283DFCE524
:1026F0003F0701F1293D4CE53407D1F1273D3C4529
:1027000091F406E221EE41EE67ED7CE50E94E312D2
:1027100080E00F910895253FFCE53F07E9F0B0F018
:10272000263F3C45F9F0FC018281882339F1109263
:102730007202EFCF07E225EE45EE68ED7CE5E6CFCD
:1027400006E221EE40EE63EF7CE5E0CF07E225EE06
:1027500044EE64EF7CE5DACF06E221EE42EE65EF6F
:102760007CE5D4CF07E225EE46EE66EF7CE5CECFE2
:1027700008E221E045EE69ED7CE5C8CF81E0C9CFF4
:10278000CF93DF93EC01FB018281882309F419C107
:10279000C230FCE5DF07C0F1C6319CE5D90730F057
:1027A0009E012A5F3C452930310570F50E94632364
:1027B00090936F0380936E03C031ECE5DE0709F45C
:1027C000CFC008F05BC0C8308CE5D80709F4B6C0AC
:1027D00088F5C430ECE5DE0709F4A8C0C0F4C230C7
:1027E0008CE5D80709F49CC080916E038260C330E9
:1027F000DC4509F498C080916E0390916F030E94AC
:1028000071230E94E21C80E0DF91CF9108958091B6
:102810006E038061C630ECE5DE0709F484C0809168
:102820006E038860C730DC4508F47DC080916E037C
:10283000806279C0CC308CE5D80709F489C070F487
:1028400080916E038C60CA30ECE5DE0709F46BC042
:1028500008F478C080916E038E7F65C0CE308CE521
:10286000D80709F479C080916E038B7FCF30DC45A7
:1028700008F459C080916E038F7E55C0CB3FECE5C4
:10288000DE0709F457C030F5C3318CE5D80709F4E9
:102890006FC078F4C131ECE5DE0709F465C0C231E0
:1028A000DC4509F0A8CF0E94E21C80916E038F776F
:1028B0003AC0C5318CE5D80709F462C008F476C087
:1028C00080916F038160CA3FDC4509F094CF80930B
:1028D0006F0391CFCF3FFCE5DF0709F44DC088F4CB
:1028E00080916F038D7FCD3F9CE5D90781F3809167
:1028F0006F038E7FCE3FDC4550F380916F03836082
:10290000E6CFC130FDE5DF0709F459C008F444C043
:1029100080E0C230DD4509F06ECF0E94EF236BCF1F
:1029200080916E03816080936E0365CF80916E030A
:102930008460F9CF80916F038260C9CF80916E036C
:102940008064F1CF0E94E21C80916E038068EBCF1F
:1029500080916E038D7FE7CF80916E03877FE3CFF9
:1029600080916E038F7DDFCF80916E038F7BDBCFF5
:1029700080916E03837FD7CF80916F038C7FA7CF29
:1029800080916E0382FB992790F921E0922790FBBA
:1029900082F990FB83F9C7CF80916F03982F9095B0
:1029A00091708E7F892B90FB81F991CF0E94E21C60
:1029B00090916E03892F97FB87F98058B4CF81E0FF
:1029C000ACCF81E021CFCF93DF93EB0186319C45E3
:1029D00011F50E9451229A81992399F08A7A91E007
:1029E00009F490E090937302811109C089E20E947A
:1029F0002C220E94A02280E0DF91CF91089585E3F0
:102A0000F6CF80917302811104C089E20E943322C3
:102A1000F0CF85E3FBCF81E0EFCFCF93DF93EC01E5
:102A200081E0898B8F810E94542288850E946722D1
:102A30000E94A022EA81FB81309739F06C897D8960
:102A4000CE010696DF91CF910994DF91CF91089541
:102A5000EF92FF920F931F93CF93DF93EC018A8540
:102A6000811134C0EB80FC8087E5F81A26E12E9DA9
:102A7000C0012F9D900D1124DC01AC5FBE4F149658
:102A8000ED91FC911597309731F054966D917C91B2
:102A9000865F9E4F099586E18E9D80018F9D100D6A
:102AA00011240C5F1E4FF80187810E945A22F80101
:102AB00080850E946D220E94A022188219861B86A2
:102AC0001E821D821092750210927402DF91CF91C6
:102AD0001F910F91FF90EF900895DF92EF92FF9278
:102AE0000F931F93CF93DF937C01FB018281882397
:102AF00091F0809154018F3F71F0C4E0D1E010E07B
:102B000000E0DD24D39480915401082E000C990B31
:102B10008017910744F4DF91CF911F910F91FF909F
:102B2000EF90DF9008958E818823C9F089859A857A
:102B30008E159F0539F480917402909175028E155F
:102B40009F0569F0DF86FC86EB868989811103C0C9
:102B5000CE010E940D15CE0106960E9428150F5F2A
:102B60001F4F6696D0CFEF92FF920F931F93CF9394
:102B7000DF937C0197558F3F910509F0D8F520919F
:102B80005401022E000C330B2817390714F48093DC
:102B90005401FB01228136E1389F8001399F100DDD
:102BA0001124E801CC5FDE4F288B92818E8199231E
:102BB00049F1FA86E9868F5F8E830E94CB249E8737
:102BC0008D870E9487228F830E94512288870E94CE
:102BD00064229885892B8887E881F981309731F0C4
:102BE0006C897D89C801865F9E4F0995F0927502B8
:102BF000E092740281E0DF91CF911F910F91FF90DD
:102C0000EF9008958823B1F38989882399F3C80147
:102C1000865F9E4F0E942815EDCFCF92DF92EF92F4
:102C2000FF920F931F93CF93DF938091540110E095
:102C300006E18F3FF1F5DF91CF911F910F91FF904A
:102C4000EF90DF90CF9008950E9DF0010F9DF00D55
:102C50001124EC5FFE4FC288D388C114D10439F42B
:102C600070E060E0818592850E94461F6C010E9D98
:102C7000E0010F9DD00D1124CC5FDE4F8E818823A3
:102C8000B9F08D859E850E94D724C816D90680F498
:102C9000109F700111248989811105C0C7018C5FC3
:102CA0009E4F0E940D15C701865F9E4F0E942815FA
:102CB0001F5FE12EF12C80915401082E000C990B1E
:102CC0008E159F050CF6B7CF8EE14A9B02C081504E
:102CD000E1F74A9BFECF08955A9880E28A95F1F772
:102CE0005A9A0895FC013BE03A95F1F720E090E014
:102CF00080E031E040E14A95F1F7880F4A9B02C03D
:102D00008160232742E04A95F1F7000040E14A95AF
:102D1000F1F79F5F6913EECF90E19A95F1F799B1C2
:102D200032E03A95F1F7000040E14A95F1F792FB65
:102D3000992790F992272081920F90830895EF921E
:102D4000FF920F931F93CF93DF930F92CDB7DEB710
:102D500019828C017C01E60EF11C0E151F0561F431
:102D600081E09981911180E00F90DF91CF911F91C7
:102D70000F91FF90EF9008950E94641668E0CE01D5
:102D800001960E947216F80181938F01E6CF90930D
:102D900078028093770260937602529A5A9A089545
:102DA00090937802809377026093760252985A9AB1
:102DB000EA9AE9E6F0E080818F7C80830895615093
:102DC000770B91E001C0990F6A95EAF720E031E0B6
:102DD000911108C0222391F05A9A80E28A95F1F766
:102DE0005A980895492F482339F05A9A232740E2E8
:102DF0004A95F1F79695ECCF5A98F9CF5A98EDCFBE
:102E0000FF920F931F93CF93DF93EC018C01060F7A
:102E1000111DC017D10731F4DF91CF911F910F9190
:102E2000FF900895F9900E946C1668E08F2D0E9423
:102E3000DF16EFCF1F920F920FB60F9211240F9350
:102E40001F932F933F934F935F936F937F938F9332
:102E50009F93AF93BF93EF93FF93CF93DF930F9223
:102E6000CDB7DEB719820E94641667E0CE010196E5
:102E70000E947216082F069506950695982F929532
:102E80009570202F2570920F292F23709695969577
:102E90008770920F891344C08981811141C080914C
:102EA00076028017E8F120E12A95F1F75A9A529AB2
:102EB00082E08A95F1F700C0A8E00A9FC0011124C2
:102EC0000091770210917802080F191F5A98F801A3
:102ED0006581662321F0868197810E9400170E94F8
:102EE0006C16F0E1FA95F1F75A9852985A9A20E147
:102EF0002A95F1F7D80112966C911297662331F159
:102F000013968D919C910E949F16D801ED91FC9192
:102F1000882311F088E001C082E080830E9464165B
:102F20000F90DF91CF91FF91EF91BF91AF919F9162
:102F30008F917F916F915F914F913F912F911F9151
:102F40000F910F900FBE0F901F901895ED91FC916F
:102F5000E1CF0F931F93CF93DF9320917602281731
:102F600019060CF471C08C0193E0000F111F9A95A3
:102F7000E1F7C0917702D0917802C00FD11FF89489
:102F8000529A5A9825E02A95F1F70000982F9695C5
:102F900095708570980F892F837096959695980FE8
:102FA000092B0E946C1600C067E0802F0E94DF167C
:102FB00080E18A95F1F752985A9A4A9B17C087E0A8
:102FC00090E04A9915C06D81662321F18E819F8121
:102FD0000E949F1681111EC0529A5A9AE881F98167
:102FE00082E08083789482E090E00DC000C0E5CF5D
:102FF000019771F4529A5A9AE881F98181E08083AD
:10300000789481E090E0DF91CF911F910F91089526
:1030100000C0D7CF0E94641620E22A95F1F75A9893
:10302000529A80E18A95F1F76A81662321F08B81BB
:103030009C810E9400170E946C16E881F981108221
:10304000789490E080E0DFCF84E090E0DCCF909354
:103050007E0280937D020895E0917D02F0917E02D0
:10306000309721F00190F081E02D099480E00895DF
:10307000E0917D02F0917E02309721F00280F38191
:10308000E02D09940895E0917D02F0917E02309741
:1030900039F022E0DC012C930480F581E02D0994C5
:1030A000089520917B0230917C022817390771F036
:1030B00090937C0280937B02E0917D02F0917E02EE
:1030C000309721F00680F781E02D09940895209132
:1030D000790230917A022817390771F090937A02B9
:1030E00080937902E0917D02F0917E02309721F089
:1030F0000084F185E02D0994089585B7806885BF27
:1031000085B7806885BF0895089508950C94841844
:1031100008950C9488180E947D180E9485180C94BC
:1031200086180C946D090E94C2240E9429080E94EE
:103130001B250E94ED100C948918BF92CF92DF924C
:10314000EF92FF920F931F93CF93DF93CDB7DEB72C
:103150002A970FB6F894DEBF0FBECDBF0E94AC0811
:103160000E949118882309F461C080E8C82E82E08B
:10317000D82E10E000E0B02E802F0E941D08E82E0F
:10318000F601F1906F01F81609F44AC080910A0324
:1031900081FD0E9423089F2D9E2580E0FF24F3944B
:1031A000292F2F21C1F18E83BF82EF2081E009F406
:1031B00080E088870E94CB248160782F9A87898756
:1031C0004E815F8168858A850E943719F801E05831
:1031D000FD4F8081F826F0820E945A110E94C62677
:1031E0000E942C1890917F02891789F10E942C1857
:1031F00080937F022A960FB6F894DEBF0FBECDBF34
:10320000DF91CF911F910F91FF90EF90DF90CF90C2
:10321000BF900C94A3058F5FFF0C883009F0C0CFDE
:103220000F5F1F4F0A30110509F0A5CF8FEF89837B
:103230008A831B820E94CB248160782F9D838C839C
:1032400049815A816B818D810E943719C5CF2A9699
:103250000FB6F894DEBF0FBECDBFDF91CF911F91A7
:103260000F91FF90EF90DF90CF90BF900895CF9394
:10327000DF93CDB7DEB72B970FB6F894DEBF0FBE46
:10328000CDBF4F83588769877A878B871E821D82BF
:1032900085E0FE013796DE01119601900D928A9528
:1032A000E1F749815A816B817C818D819E812B96CA
:1032B0000FB6F894DEBF0FBECDBFDF91CF910C9457
:1032C000491FFC01808191810C94FE21CF93C82F6E
:1032D000882309F490C08238C1F40E942C1881FD23
:1032E0008AC089E30E942C220E94A0222FEF81EE47
:1032F00094E0215080409040E1F700C0000089E355
:103300000E943322CF910C94A0228338A1F40E9412
:103310002C1880FD70C083E50E942C220E94A02200
:103320002FEF81EE94E0215080409040E1F700C003
:10333000000083E5E5CF8438A1F40E942C1882FDBB
:103340005AC087E40E942C220E94A0222FEF81EE17
:1033500094E0215080409040E1F700C0000087E4F5
:10336000CFCF8CEF8C0F813AB8F48C2F0E944B2971
:10337000811141C06C2F80915501909156010E949E
:103380000624882329F08C2F0E9433220E94A02239
:103390008C2F0E942C22B6CF80E28C0F883048F40C
:1033A000C77081E001C0880FCA95EAF70E945422D5
:1033B000A9CFEBE5EC0FE33040F4F0E0EE5FFD4F1A
:1033C000808190E0CF910C945118E8E5EC0FE73143
:1033D00050F4F0E0EE0FFF1FEC52FE4F8081918120
:1033E000CF910C946718C03F30F08C2F0E94C025FD
:1033F000CF910C94AB26CF910895882309F452C045
:10340000823871F40E942C1881FF4CC089E30E941D
:103410002C220E94A02289E30E9433220C94A02235
:10342000833859F40E942C1880FF3CC083E50E9429
:103430002C220E94A02283E5EFCF843859F40E9409
:103440002C1882FF2FC087E40E942C220E94A02209
:1034500087E4E2CF9CEF980F913AF0F290E2980F58
:10346000983050F4877091E001C0990F8A95EAF77F
:10347000892F0E945A22D2CF9BE5980F933020F4D7
:1034800090E080E00C94511898E5980F973120F463
:1034900090E080E00C946718803F20F00E9428267E
:1034A0000C94AB260895CF93C82F0E946619C93398
:1034B00049F42FEF87EE93E0215080409040E1F7F0
:1034C00000C000008C2FCF910C94FD19882321F0AF
:1034D0000E9454220C94A0220895882321F00E9477
:1034E0005A220C94A0220895BF92CF92DF92EF92BD
:1034F000FF920F931F93CF93DF936C01D62FC72FAB
:10350000FC01058102950F70128111110E94742235
:103510000E944A22E82E882391F01123D1F08C2FAB
:10352000807F803421F080E28D0F883090F082E03F
:103530000E94EB220E944A2291E0E82EE926BC2E4E
:10354000B2949FE0B922EB2DF0E0E750FE4C0C94D2
:10355000DC30E12CF4CF0C2F0F70C07F11F00295FE
:10356000007F1123A9F0002359F080E28D0F8830ED
:1035700010F0D11109C0802F0E9454220E94A02275
:103580008D2F0E94661914C0802F0E946722F6CFEB
:103590008D2F0E94FD19002359F080E28D0F883095
:1035A00010F0D1112CC0802F0E945A220E94A0221C
:1035B0002B2D2850330B2430310520F40E942C1879
:1035C0000E94A305EE2009F49EC10E94462280FDC0
:1035D0009AC1F60112820E9440220E94CB20C601AD
:1035E0000E94A41C0E944022DF91CF911F910F9155
:1035F000FF90EF90DF90CF90BF900C94EC20802F45
:103600000E946D22D3CFFC2FFF70FF2EC07FC032EF
:1036100019F0F29480EFF822DD2369F0D13049F1FE
:10362000112391F1002351F1F601858180FFA8CF8C
:103630008F70858323C0112381F0011106C00E9481
:1036400087228F290E94661AB3CF0130C1F70E94EA
:1036500087228F290E948D22ABCF011106C00E94C4
:1036600096228F2D0E946D1AA3CF013009F4A0CFAE
:10367000F6CF112329F0063008F09ACF8F2DE2CF34
:10368000053008F095CFEDCF002359F3D93349F435
:10369000FFEF27EE33E0F15020403040E1F700C06B
:1036A00000008D2F0E94FD1983CF8C2F8695869563
:1036B000837069F0813009F07BCF8D2F9C2F937040
:1036C000111102C090E080E00E94671871CF8D2F29
:1036D0009C2F9370111102C090E080E00E9451185D
:1036E00067CF8D2F112329F00E94C0250E94AB26A1
:1036F0005FCF0E942826FACF8C2F837009F041C03B
:10370000111156CF4D2F429546954770440F440FE7
:103710000D2F0F7010E030E020E0042E04C0000FE9
:10372000111F221F331F0A94D2F760E070E0CB0113
:10373000D4FF0FC06FE070E080E090E004C0660F3F
:10374000771F881F991F4A95D2F7609570958095CD
:103750009095C695C695C370602B712B822B932BC9
:10376000C23049F058F4C13019F00E947F2020CFB8
:103770000E946D201DCF0E9491201ACF0E946B20C5
:1037800017CF8695112311F08C2F8170882309F4AF
:103790000FCF4D2F429546954770440F440F0D2F84
:1037A0000F7010E030E020E0042E04C0000F111F65
:1037B000221F331F0A94D2F760E070E0CB01D4FFE0
:1037C0000FC06FE070E080E090E004C0660F771FEC
:1037D000881F991F4A95D2F76095709580959095AE
:1037E000C695C695C370602B712B822B932BC2306C
:1037F00049F058F4C13019F00E944221D9CE0E94FC
:103800003021D6CE0E945421D3CE0E94A520D0CE06
:10381000CF70112329F08C2F0E94CB208D2F12CF37
:103820008D2F0E946D1A8C2F0E94EC20C1CED23FAA
:1038300089F160F4D03FC9F0D13F29F1112309F497
:1038400042C001119DCE8C2F8F7121C0D33F39F121
:10385000D43FA1F7112369F1CF718C2F0E94CB20A7
:1038600063E08C2F0E94D622A3CE112341F00530B5
:1038700008F09ECE8C2F8F710E940F2199CE0630BA
:1038800008F096CEF7CF8C2F8F71112369F20E942A
:10389000CB208ECE8C2F8F711123C9F3C5CF11236E
:1038A00029F08C2F8F710E94B62082CE0E94B12009
:1038B0007FCE81E00E94EB22023008F479CE82E0D4
:1038C0000E94EB2275CE002359F0D93309F0E9CEDE
:1038D0008FEF97EEE3E081509040E040E1F7DFCEDC
:1038E0008C2F8F71A1CF4C2F4F706D2FC6010E946E
:1038F00007060E94E31F5CCE4C2F4F706D2FC60150
:103900000E940A0655CEDF91CF911F910F91FF9033
:10391000EF90DF90CF90BF9008950F931F93CF93B8
:10392000DF93EC01688179818A810E9408228C01F1
:103930000E9466210E946A20B801CE01DF91CF91DA
:103940001F910F910C94741ACF93DF93EC018B812C
:103950009C81892B29F08881998189238F3F59F493
:10396000DF91CF910895CE010E948D1CCE01DF9191
:10397000CF910C94CC04CE010E94BB058111F3CFF2
:103980000E944A22882361F38A81882349F382E0D6
:10399000DF91CF910C94EB220E9474220E9484222A
:1039A0000E94A0220E94D2270E94AB2690E080E0D5
:1039B0000E94511890E080E00C9467180E943A220F
:1039C0000C94CC1C0E9461220C94DE1CE92FE29521
:1039D000EF70E250EE3070F4F0E0E75FFD4C0C94D5
:1039E000DC30803F19F020F4883E20F481E0089517
:1039F000843FE1F380E00895883EC0F3813FD1F732
:103A0000F5CF93FB882780F908950E94FE210C943E
:103A1000E61CCF93DF9300D000D00F92CDB7DEB776
:103A20000F900F900F900F900F90DF91CF9108950E
:103A3000CF93DF9300D000D000D0CDB7DEB726966D
:103A40000FB6F894DEBF0FBECDBFDF91CF910895C2
:103A50001F93CF93DF93C0918B0216E080918C026D
:103A60008C1304C0DF91CF911F910895D0E01C9F6B
:103A7000F0011D9FF00D1124E357FD4F408151814E
:103A800062817381848195810E94181D2196C7707F
:103A9000E5CF4091BD025091BE026091BF0270918E
:103AA000C0028091C1029091C2020C94181D1F9314
:103AB000CF93DF938091C202807FA9F48091BF02EF
:103AC000882389F080918B02C0918C026091BD02A5
:103AD0007091BE02A091C002B091C102D62FD7232F
:103AE00016E0C81304C0DF91CF911F91089590E0B4
:103AF000109711F0DF3F19F401968770F2CF189FED
:103B00009001199F300D1124F901E357FD4F4181B8
:103B10004713F2CF40814613EFCF42814111ECCFE2
:103B2000438154814A1B5B0B443B510528F780912C
:103B3000C2028F7080618093C202F901EE56FD4F80
:103B400080818F70806180838DEB92E00E94A41C45
:103B5000DF91CF911F910C94281DAF92BF92CF920D
:103B6000DF92EF92FF920F931F93CF93DF93CDB726
:103B7000DEB761970FB6F894DEBF0FBECDBF8C01E4
:103B800085E0F801DE011D9601900D928A95E1F71E
:103B9000F80140815181E2808DEBC82E82E0D82E61
:103BA0006091C0027091C1026115710509F44FC1A5
:103BB0009091BD022091BE02892F82238F3F09F48C
:103BC00046C1A380B480F090BF02F501E61BF70B5D
:103BD000FF2009F40AC18091C202382F307FE43BF4
:103BE000F10508F0C0C0311179C0FE2C251323C0A7
:103BF000941321C0E1101FC08F7080618093C202B6
:103C00000E94491DC6010E94A41C8091C202F801B5
:103C100085838F2D61960FB6F894DEBF0FBECDBFA2
:103C2000DF91CF911F910F91FF90EF90DF90CF9098
:103C3000BF90AF900895AB2829F0842F85238F3F44
:103C400009F021C180E0F82FF170DF2E80FF3CC029
:103C500080918B0220918C0236E0821315C04D8733
:103C60005E878D859E850E94FE21292F22952F70CB
:103C70002230F0F0243018F59F70F1F0F8019581B2
:103C8000907FD1F4D12C1EC090E0389FF001399F75
:103C9000F00D1124E357FD4F6181651306C060816B
:103CA000641303C062816E110FC001968770D5CF77
:103CB0009F7011F0882331F3805E883018F3C801BB
:103CC0000E94A41CFD2CA5CFEE2009F4A2CF809168
:103CD000C20281608093C202F12C9BCF251314C0D5
:103CE000941312C0E11010C0F8018583C8010E942E
:103CF000A41C86E0F801ADEBB2E001900D928A952C
:103D0000E1F70E94491D85CF4D875E878D859E8591
:103D10000E94051D882319F1EE2009F18091C2024D
:103D2000803270F02091BD023091BE0238872F831F
:103D30001986BB86AA868C87CE0107960E94A41C92
:103D400086E0F801ADEBB2E001900D928A95E1F7C3
:103D50000E94571D0E94491DFF24F3945ACFC801A9
:103D60000E94A41CF9CF311113C07A2DB98AA88AF8
:103D70006E2D89890E94091D8DEB92E00E94A41C82
:103D800086E0F60111928A95E9F70E94491DA4CFB9
:103D900025130FC094130DC0E1100BC0F8018583EB
:103DA000C8010E94A41C86E0F60111928A95E9F7E9
:103DB00030CF4D875E878D859E850E94051D8823A7
:103DC00071F2EE2061F28091C202803208F4B8CF25
:103DD0002091BD023091BE023A8329831B82BD82AD
:103DE000AC828E83CE010196A9CFE43BF10510F59C
:103DF000FE2CEE2009F4B3CF25130BC0941309C099
:103E000086E0F801ADEBB2E001900D928A95E1F702
:103E100000CF4D875E878D859E850E94051D81118F
:103E20008FCF8091C20281608093C202C8010E943C
:103E3000A41CEFCE7A2DB98AA88A6E2D89890E949A
:103E4000091D86E0F60111928A95E9F75ACFEE2016
:103E500009F485CF4D875E878D859E850E94051D5F
:103E6000F82E882309F47BCF86E0F801ADEBB2E0B1
:103E700001900D928A95E1F78DEB92E00E94611915
:103E80000E94571D3ECF81E08E25DDCE84EB90E071
:103E900008951F93CF93DF93CDB7DEB72C970FB65E
:103EA000F894DEBF0FBECDBF4F83588769877A87EE
:103EB0008B879C87CE0107960E94AD1D882369F0F1
:103EC0008A859B85892B39F04F815885842F8523DE
:103ED0008F3F09F071C016E05FC086E0FE013796A3
:103EE000DE01119601900D928A95E1F78A859B85F6
:103EF000892B89F38F81988589238F3F61F32091E6
:103F00008C0230E0C90101968770992740918B029D
:103F10004817190671F40E94E21C10928C0210924C
:103F20008B0286E0EDEBF2E0DF011D928A95E9F766
:103F3000D2CF96E0929FD001939FB00D1124A3574A
:103F4000BD4FFE01319601900D929A95E1F7809355
:103F50008C020E94281DBFCF819FC001112483576E
:103F60009D4F0E94AD1D8823E9F0E0918B021E9FBA
:103F7000F0011124E357FD4F40815181628173812B
:103F8000848195810E94181D80918B0290E001969A
:103F90008770992780938B0280918B0290918C027D
:103FA0008913DACF2C960FB6F894DEBF0FBECDBFC3
:103FB000DF91CF911F91089569857A858B859C85C6
:103FC0000E94181D88CFEF92FF920F931F93CF93FB
:103FD000DF938C01892B81F0F12CEE24E394E8012E
:103FE0002196F8018491843770F4843008F05FC022
:103FF0008130B1F08230A1F1DF91CF911F910F910B
:10400000FF90EF900895853709F44CC008F43DC047
:104010009CE7980F903780F78F770E94FD1949C071
:104020000E5F1F4FFE01849190E2980F983060F46C
:104030008770FE2D01C0FF0F8A95EAF78F2F0E942F
:1040400077220E94A02202C00E9466198F2D815003
:1040500030F2EFE9FFE03197F1F700C00000F7CF51
:104060000E5F1F4FFE01849190E2980F983050F43C
:104070008770FE2D01C0FF0F8A95EAF78F2F0E94EF
:104080007D22DFCF0E94FD19E1CF0E5F1F4FFE01A1
:10409000C491C150D8F28FE99FE00197F1F700C0B9
:1040A0000000F7CF0E5F1F4FFE01F490CFCF0E94AC
:1040B00066198E01CBCF08950C945B200E945C2082
:1040C0006093F9027093FA028093FB029093FC02D2
:1040D0000C94CC1C08950C945E200F931F930091B8
:1040E000F9021091FA022091FB023091FC02602B40
:1040F000712B822B932B1F910F910C945E200F93A9
:104100001F930091F9021091FA022091FB02309165
:10411000FC0260237123822393231F910F910C943F
:104120005E200F931F930091F9021091FA022091E3
:10413000FB023091FC0260277127822793271F9191
:104140000F910C945E200C9427040E94A32060938E
:10415000F5027093F6028093F7029093F8020C94A4
:10416000CC1C60E070E0CB010C94A5200F931F9352
:1041700041E050E060E070E08A019B0104C0000F64
:10418000111F221F331F8A95D2F7C901B8011F9151
:104190000F910C94A5200F931F9341E050E060E035
:1041A00070E004C0440F551F661F771F8A95D2F731
:1041B0008091F5029091F602A091F702B091F80279
:1041C0008A019B01082B192B2A2B3B2BC901B80113
:1041D0001F910F910C94A5200F931F9341E050E085
:1041E00060E070E004C0440F551F661F771F8A957A
:1041F000D2F7CB01BA0160957095809590950091AA
:10420000F5021091F6022091F7023091F802602336
:104210007123822393231F910F910C94A5200F9358
:104220001F9341E050E060E070E004C0440F551F70
:10423000661F771F8A95D2F78091F5029091F6025A
:10424000A091F702B091F8028A019B010827192773
:104250002A273B27C901B8011F910F910C94A52073
:104260000F931F930091F5021091F6022091F7022F
:104270003091F802602B712B822B932B1F910F91A1
:104280000C94A5200F931F930091F5021091F60254
:104290002091F7023091F802602371238223932347
:1042A0001F910F910C94A5200F931F930091F5027D
:1042B0001091F6022091F7023091F80260277127E1
:1042C000822793271F910F910C94A5200895990F91
:1042D000990F990F890F982F977041E001C0440FF3
:1042E0009A95EAF786958695869595E0899FF001DF
:1042F0001124ED53FD4F30E020E070E05191DF01DB
:104300001197CB01022E02C0969587950A94E2F789
:10431000817081958527842385278C932F5F3F4F5C
:104320002530310559F70895990F990F990F890F85
:10433000982F977086958695869525E0829FF00147
:104340001124ED53FD4F50E040E080E0219130E03A
:10435000092E02C0369527950A94E2F7217033277B
:10436000042E01C0220F0A94EAF7822B4F5F5F4FA1
:104370004530510559F70895BF92CF92DF92EF92E1
:10438000FF920F931F93CF93DF938C01C090F502A0
:10439000D090F602E090F702F090F8028091F902D6
:1043A0009091FA02A091FB02B091FC02C82AD92A8E
:1043B000EA2AFB2ACFE1D0E0BC2ED701C6010C2EA1
:1043C00004C0B695A795979587950A94D2F780FD76
:1043D0000EC0219788F7B12C8B2DDF91CF911F91C3
:1043E0000F91FF90EF90DF90CF90BF900895B801AC
:1043F0008C2F0E942806019761F3EECFCF93DF93B5
:10440000EC010E94BC21BE01DF91CF910C942806E3
:104410001F93CF93DF93EB0190918A02992331F0A0
:10442000CB01DF91CF911F910C94FE21882379F06D
:10443000CB010E94BC21182F682FCE010E9467215A
:10444000BE01812FDF91CF911F910C942806CB01E3
:104450000E949421182FF4CF682F809155019091DC
:1044600056010C943C24682F80915501909156017F
:104470000C943E2480915501909156010C94402457
:104480008091FD0285958595859508958091FD0221
:10449000877008959091FD02977081E009F480E0A3
:1044A000089580910903089590910903892B8093C1
:1044B0000903089580959091090398239093090327
:1044C000089510920903089580910803089590912A
:1044D0000803892B80930803089580959091080321
:1044E00098239093080308951092080308959091DB
:1044F0000703892B80930703089580959091070304
:1045000098239093070308951092070308958091CC
:10451000FE02089508950C948A229091FE02981745
:1045200021F08093FE020C948B2208958091FE026C
:10453000882329F01092FE0280E00C948B220895CB
:10454000E0915501F0915601809109038083E0913B
:104550005501F0915601808190910803892B808349
:10456000E0915501F0915601808190910703892BCC
:1045700080839091FE02992381F0E0915501F091A2
:1045800056018081892B808380915501909156013D
:104590000E94F42381110E949622809155019091EE
:1045A00056010C94381808950C94D32298E0899FF2
:1045B00090011124622B6093FD020E94CB20809118
:1045C000FD028595859585950C94D4221092FD0267
:1045D00080E00C94D4229091FD02809589238093F1
:1045E000FD02282F277071F4282F082E000C330BA2
:1045F0009217130639F08595859585950E94EC20D4
:104600000C94E6220895CF92DF92EF92FF926C0114
:10461000EE24FF2420E0C114D104E104F10419F0D8
:10462000C701B60120E1C72ED82EE92EFF24C11400
:10463000D104E104F10419F0285FC701B6016B0150
:104640007C0154E0F694E794D794C7945A95D1F737
:10465000C114D104E104F10419F02C5FC701B601C3
:104660006B017C0142E0F694E794D794C7944A9595
:10467000D1F7C114D104E104F10419F02E5FC70190
:10468000B6019695879577956795672B682B692B6B
:1046900009F02F5F822FFF90EF90DF90CF90089569
:1046A00090E080E00E948A3121E08C3E9E4F09F02C
:1046B00020E0822F089582E090E00C947C3183E02A
:1046C00090E00C947C31CF9384E090E00E947C31A8
:1046D000C82F81E290E00E947C31982F8C2FCF91DF
:1046E0000895CF93C92F682F84E090E00E94903105
:1046F0006C2F81E290E0CF910C949031AB01BC0122
:104700008FE090E00C94A231AB01BC0183E190E01A
:104710000C94A23160E070E0CB010C94842360E043
:1047200070E0CB010E947E230C948A236CEE7EEF16
:1047300090E080E00E94AE3160E082E090E00E9474
:10474000903160E083E090E00E9490311092F90295
:104750001092FA021092FB021092FC0260E084E0D8
:1047600090E00E94903160E081E290E00E94903100
:1047700060E085E090E00E94903160E086E090E0AB
:104780000E9490316FEF87E090E00E94903140E00E
:1047900050E0BA0188E090E00E94A23160E08DE034
:1047A00090E00E94903140E050E0BA0188E190E052
:1047B0000E94A23160E087E190E00E94903140E0E9
:1047C00050E0BA018CE190E00E94A23160E080E20A
:1047D00090E00E9490310C948F230C949623682FC4
:1047E0008EE090E00C9490319C012E5F3F4FAC0125
:1047F000485F5F4F80E02417350709F40895F901F9
:1048000091919F019923B9F38F5FF5CF662349F00A
:10481000FC01329608962191261729F0E817F9072E
:10482000D1F780E0089581E008959C01FC01329663
:104830009FEF80E04191461751F09F3F19F44111DD
:1048400001C0982F8F5F8630A9F79F3F09F4089524
:10485000290F311D97FD3A95F90162830895FC01F6
:10486000329608962191261303C0DF0111971C92FE
:10487000E817F907B9F708950C9415240C942F2420
:10488000029626E0FC0111922A95E9F70895089511
:1048900008950C9448240E94492480917403843024
:1048A00049F110920B0388E190E020E40FB6F894F0
:1048B000A895809360000FBE2093600080E00E9466
:1048C000A3050E94492483B7817F846083BF83B797
:1048D000816083BF7894889583B78E7F83BF0FB63E
:1048E000F894A89580916000886180936000109290
:1048F00060000FBE08950895CF930E9447240E9440
:10490000AC080E947B24C0E08C2F0E941D088111FE
:1049100005C0CF5FCA30C1F7CF91089581E0FCCFC9
:1049200008950C9490240E94E21C0E942C180E946E
:10493000A3050C9491241F921FB61F9211248F93EC
:104940009F93AF93BF9380910B03811113C080910C
:104950006A0390916B03A0916C03B0916D03419633
:10496000A11DB11D80936A0390936B03A0936C0308
:10497000B0936D03BF91AF919F918F911F901FBE18
:104980001F90189582E084BD93E095BD9AEF97BD86
:1049900080936E0008952FB7F89480916A039091E8
:1049A0006B03A0916C03B0916D032FBF08959C0120
:1049B0004FB7F89480916A0390916B03A0916C03B8
:1049C000B0916D034FBF821B930B089578941F9293
:1049D0001FB61F9211248F939F93AF93BF93809123
:1049E0006A0390916B03A0916C03B0916D030196E3
:1049F000A11DB11D80936A0390936B03A0936C0378
:104A0000B0936D03BF91AF919F918F911F901FBE87
:104A10001F90189587E797E7909301088093000807
:104A200088E19AE00FB6F894A895809360000FBED5
:104A300090936000FFCF0E945023811102C00E941A
:104A4000ED230E945B2380930A030E9463239093CB
:104A50006F0380936E030E945F23682F70E090E0E5
:104A600080E00E946B206091F5027091F6028091C7
:104A7000F7029091F8020C94A3208091160380FF16
:104A800012C060915A0185E0689FB00111247595AC
:104A900067957595679560387105A8F5611571057D
:104AA000A1F1862F089581FF09C060915A0185E028
:104AB000689FB001112475956795EDCF60915A01FB
:104AC00082FD0AC0809115038823D1F090910D03D7
:104AD00060915A01891728F085E0689FB001112480
:104AE000DACF869FB001112485E0869F9001879FD1
:104AF000300D1124692F70E0C9010E94A630CBCF80
:104B000065E070E0CECF8FE7089581E00895809151
:104B1000160380FF0CC06091570170E07595679592
:104B2000759567956115710549F1862F089581FF87
:104B300006C06091570170E075956795F3CF60915D
:104B4000570182FD0BC0909114039923A1F060914D
:104B50000C0380915701961738F0682F70E0603889
:104B6000710500F38FE70895899FC001112470E05B
:104B70000E94A630F4CF61E070E0D7CF81E00895C5
:104B8000803F31F40E943D25819580931A0308955A
:104B9000813F19F40E943D25F8CF823F31F40E94F5
:104BA0003D258195809319030895833F19F40E9450
:104BB0003D25F8CF893F29F40E94872580931B0368
:104BC00008958A3F21F40E9487258195F7CF8B3F76
:104BD00031F40E948725819580931C0308958C3FB2
:104BE00019F40E948725F8CF843F31F4809118038F
:104BF0008160809318030895853F21F48091180304
:104C00008260F7CF863F21F4809118038460F1CF52
:104C1000873F21F4809118038860EBCF883F21F40F
:104C2000809118038061E5CF8D3F31F480911603A8
:104C300081608093160308958E3F21F480911603BE
:104C40008260F7CF8F3FB9F7809116038460F1CF70
:104C500090911903803F59F480911A0387FF0DC08A
:104C600010921A0391110BC01092150308C0813FD6
:104C700081F480911A0318169CF3992381F0809196
:104C80001B0390911C03892B09F064C0109214033C
:104C90000895823F49F497FFF0CF10921903809155
:104CA0001A038111ECCFE0CF833F19F41916ACF34E
:104CB000E4CF20911B03893F29F41216F4F61092D9
:104CC0001B03DBCF8A3F19F427FFD7CFF8CF209102
:104CD0001C038B3F29F427FFD0CF10921C03CDCFAC
:104CE0008C3F19F41216CCF3C8CF843F31F4809175
:104CF00018038E7F80931803C0CF853F21F48091E5
:104D000018038D7FF7CF863F21F4809118038B7FA6
:104D1000F1CF873F21F480911803877FEBCF883F45
:104D200021F4809118038F7EE5CF8D3F31F480917F
:104D300016038E7F80931603A0CF8E3F21F48091BF
:104D400016038D7FF7CF8F3F09F097CF8091160321
:104D50008B7FF0CF08950E94CB249C019091190382
:104D600080911A03982B21F03093130320931203A0
:104D700090911B0380911C03982B21F03093110319
:104D80002093100387E193E00C944318EF92FF9275
:104D90000F931F93CF93DF9300D000D000D0CDB7F7
:104DA000DEB786E0E7E1F3E0DE01119601900D92B7
:104DB0008A95E1F7E0901903F0901A0300911B0324
:104DC00010911C031092190310921A0310921B03E6
:104DD00010921C038E2D8F2991F0809112039091D7
:104DE00013030E94D724AC0190911503992309F471
:104DF0003FC080910E038417150608F447C0802F2A
:104E0000812B91F080911003909111030E94D7247F
:104E1000AC0190911403992309F477C08091580153
:104E20008417150608F47FC08091190390911A0326
:104E3000892B90911B03892B90911C03892B11F0D6
:104E40000E94AB2686E0FE013196A7E1B3E0019017
:104E50000D928A95E1F726960FB6F894DEBF0FBE45
:104E6000CDBFDF91CF911F910F91FF90EF900895EB
:104E700020910F038AE0289F900111242417350701
:104E800008F0BDCF9F5F9093150302C09F3FD1F7FD
:104E9000EE2059F00E943D259FEF1E140CF491E086
:104EA000899F802D112480931903FF2059F00E94BF
:104EB0003D259FEF1F140CF491E0899F802D112454
:104EC00080931A0330911903332309F498CF20916A
:104ED0001A03222309F493CF45EB3403C0011124B4
:104EE000992359F09093190345EB24039001112461
:104EF000332339F030931A0382CF81E08093190372
:104F0000F3CF81E080931A037ACF209159018AE090
:104F1000289F900111242417350708F085CF9F5F43
:104F20009093140302C09F3FD1F7002359F00E94D1
:104F300087259FEF10160CF491E0899F802D112496
:104F400080931B03112359F00E9487259FEF1116B0
:104F50000CF491E0899F802D112480931C033091E3
:104F60001B03332309F460CF20911C03222309F48F
:104F70005BCF45EB3403C0011124992359F0909382
:104F80001B0345EB240390011124332339F03093A4
:104F90001C034ACF81E080931B03F3CF81E0809311
:104FA0001C0342CF86E0E7E1F3E0DF011D928A9522
:104FB000E9F7109215031092140310921603089546
:104FC000833081F128F4813059F08230D1F0089596
:104FD000853009F449C0B8F1863009F456C0089507
:104FE00080910F03482F460F5527551F4F3F5105FE
:104FF00024F4680F60930F0308958FEF80930F03DD
:10500000089580910E03482F460F5527551F4F3F97
:10501000510524F4680F60930E0308958FEF809379
:105020000E03089580915A01482F460F5527551FAA
:105030004F3F510524F4680F60935A0108958FEF94
:1050400080935A01089580910D03482F460F5527EC
:10505000551F4F3F510524F4680F60930D030895C9
:105060008FEF80930D03089580915701482F460FCD
:105070005527551F4F3F510524F4680F6093570182
:1050800008958FEF80935701089580910C03482F66
:10509000460F5527551F4F3F510524F4680F609365
:1050A0000C0308958FEF80930C030895833011F162
:1050B00028F4813049F0823091F00895853081F1F3
:1050C00020F18630C1F1089580910F03681720F414
:1050D000861B80930F03089510920F03089580910B
:1050E0000E03681720F4861B80930E030895109218
:1050F0000E03089580915A01681720F4861B80934F
:105100005A01089510925A01089580910D0368176D
:1051100020F4861B80930D03089510920D030895CB
:1051200080915701681720F4861B809357010895DA
:1051300010925701089580910C03681720F4861B84
:1051400080930C03089510920C0308950F931F93FE
:1051500041E050E060E070E08A019B0104C0000F74
:10516000111F221F331F8A95D2F7C901B8010E946F
:105170006B201F910F910C94E21C8B3109F461C0DC
:1051800040F58B3071F078F4863009F443C020F498
:10519000853059F180E00895873009F444C08830A3
:1051A000C9F781E00895803109F459C068F48E3060
:1051B00089F790910A03892F8B7F92FF84608093F7
:1051C0000A0382FD48C0EDCF863159F3893149F396
:1051D000E1CF8A32E1F060F48732A9F020F48E3119
:1051E000C8F28D5111C08932A9F60E94AC05D9CF01
:1051F000833438F48A33F0F5853329F0883389F223
:10520000C9CF833439F680E00E94A628CACF0E9415
:10521000ED23C7CF80910A03807F80930A0381E04A
:1052200080931E03089590910A03892F8E7F90FF2B
:10523000816080930A0380FDB4CF817F80930A034D
:10524000B0CF90910A03892F8D7F91FF8260809368
:105250000A0381FFA6CF80910A038160EFCF90916E
:105260000A03892F877F93FF886080930A0383FD59
:10527000F2CF97CF8953C8CF80E008950C943C2992
:105280008E518A3030F4E82FF0E0EB5FFD4F8081E3
:10529000089580E00895CF93C82F80911E03813038
:1052A000B9F0882331F08230A1F110921E0380E022
:1052B0000DC00E9451228232D1F78C2F0E943C29CE
:1052C00081111BC08C2F0E94BD288170CF91089541
:1052D0000E945122823289F38C2F0E943E29811133
:1052E0000AC0C43199F060F4CB3029F0C03169F7BD
:1052F00082E080931E0381E0E8CF81E090E0E5CF7B
:10530000C93221F0C833B9F380E0DFCF10921E0319
:10531000FBCFC93219F188F4C43101F120F4C73050
:1053200081F181E0D3CF82EE8C0F8630D0F78C2FC5
:105330000E94402980931D03F4CFCE3401F140F444
:105340006AE0CB3471F780911D030E94E027E9CF1A
:10535000C13579F061E0C235B1F3E3CF80911D032F
:10536000882319F010921D03DCCF81E080931E0387
:10537000ADCF61E080911D030E945628D2CF6AE034
:10538000F9CF10920F0310920E0384E080935A011C
:1053900010920D0381E08093570110920C0396CF79
:1053A000809127030895CF93DF9300D00F92CDB75C
:1053B000DEB790917403943019F589837B836A83F7
:1053C00082E08093E9008FEF9091E800815095FD95
:1053D00006C095ED9A95F1F700008111F5CF809107
:1053E000E80085FF0DC050E040E063E070E0CE01D2
:1053F00001960E94E72B8091E8008E778093E80069
:105400000F900F900F90DF91CF910895BC0184E031
:105410000C94D329BC0183E00C94D3299C0182E035
:105420008093E9009FEF8091E800915085FD06C0D0
:1054300085ED8A95F1F700009111F5CF8091E80094
:1054400085FF0CC050E040E066E070E0C9010E94BA
:10545000E72B8091E8008E778093E8000895CF9342
:10546000DF93EC0181E08093E9008FEF9091E800F9
:10547000815095FD06C095ED9A95F1F700008111D8
:10548000F5CF8091E80085FF14C050E040E068E06F
:1054900070E0CE010E94E72B8091E8008E77809328
:1054A000E80088E0FE01AFE1B3E001900D928A953B
:1054B000E1F7DF91CF91089580917303811109C0C5
:1054C0000E94772D0E94D42D8091E2008460809309
:1054D000E2000895109273030895089508950C94BE
:1054E000932442E061EC81E00E94F32C42E261EC03
:1054F00082E00C94F32C80917603833009F45FC032
:1055000030F48130C1F1823009F49BC008958A30B3
:1055100009F487C08B3009F46DC0893009F04EC0A2
:1055200080917503813209F049C08091790390918F
:105530007A03029708F042C08091E800877F809349
:10554000E8008091E80082FF35C09091F3008091DF
:10555000F200029729F48091F1008B7F813021F4D1
:105560008091F100809327038091E8008B778093EE
:10557000E8000C94272D80917503813AF9F480910D
:10558000E800877F8093E8008091790390917A0307
:10559000892B61F468E08FE193E070E00E94362C83
:1055A0008091E8008B778093E800089560E090E0B8
:1055B00080E0F3CF809174038111C3CF089580916F
:1055C0007503813AD9F78091790390917A03892BF9
:1055D000A9F78091E800877F8093E8008091E80038
:1055E00080FFFCCF809165018093F1008091E800FD
:1055F0008E77BDCF80917503813201F78091790359
:1056000090917A03892BD1F68091E800877F80936F
:10561000E8000E94272D80917703809365010C9408
:10562000E21C80917503813249F68091E800877F02
:105630008093E8000E94272D8091780380932803AF
:10564000089580917503813A09F0B8CF8091E80000
:10565000877F8093E8008091E80080FFFCCF8091F5
:105660002803C2CF84B7877F84BF0FB6F894A8956C
:1056700080916000886180936000109260000FBE8E
:1056800080E890E00FB6F8948093610090936100F9
:105690000FBE0E948B180E94772D0E94D42D8091FE
:1056A000E20084608093E20078940E945D300E9462
:1056B00093188BE591E00E94271880917403853040
:1056C00019F00E949D18F9CF0E944B24809172031B
:1056D000882399F30E947C24882379F30E94D12B9C
:1056E000ECCF0C94732B292F33272330310519F17C
:1056F00068F42130310509F44AC02230310509F43B
:105700004BC090E080E030E020E028C0213231053D
:1057100079F122323105A9F780E490E022E037E008
:1057200061157105D9F081E890E021E836E061303B
:105730007105A1F0E6CF99278130910599F0009786
:1057400041F08230910589F00397D9F6EEEFF5E04C
:1057500002C0E0E3F6E0849190E09F01FA0131831A
:1057600020830895E0E1F6E0F6CFE4E0F6E0F3CF41
:1057700089E090E026E436E06115710579F389E06F
:1057800090E02FE536E06130710541F3BACF82E158
:1057900090E02FE636E0E2CF8BE390E024E336E0C2
:1057A000DDCF80E189BD82E189BD09B400FEFDCF76
:1057B0008091D8008F7D8093D8008091E000826036
:1057C0008093E0008091E00081FDFCCF0895AF92CE
:1057D000BF92CF92DF92FF920F931F93CF93DF93ED
:1057E0006C01EB018A010E94462DF82E811123C025
:1057F0000115110539F0F80180819181C81BD90B81
:10580000C80ED91EB12CA12C2097A9F08091E800D8
:1058100085FD22C08091E8008E778093E800011515
:105820001105A1F0F80180819181A80EB91EB18205
:10583000A08285E0F82E8F2DDF91CF911F910F91DF
:10584000FF90DF90CF90BF90AF9008950E94462DBB
:105850008823D1F2F82EEFCFF60181916F0180936A
:10586000F1002197FFEFAF1ABF0ACECFFC01809164
:105870007B0390917C0386179707A0F06115710553
:1058800029F49091E8009E779093E80090E06115EC
:10589000710551F4911108C08091E80082FF34C075
:1058A00080E00895BC01F2CF809174038823C1F198
:1058B0008530C1F18091E80083FD30C08091E8001F
:1058C00082FDEACF8091E80080FFE1CF8091F30074
:1058D0002091F200382F6115710519F0283031053B
:1058E00058F091E02830310509F090E02091E8006F
:1058F0002E772093E800CBCF81918093F100615007
:1059000071092F5F3F4FE7CF80917403882341F0E7
:10591000853041F08091E80083FFBECF81E008959B
:1059200082E0089583E00895FC0180917B039091CB
:105930007C0386179707A0F06115710529F4809103
:10594000E8008E778093E80090E06115710551F4CE
:10595000911108C08091E80082FF35C080E0089571
:10596000BC01F2CF809174038823C9F18530C9F15D
:105970008091E80083FD31C08091E80082FDEACF8C
:105980008091E80080FFE1CF8091F3002091F20048
:10599000382F6115710519F02830310558F091E064
:1059A0002830310509F090E08091E8008E778093EF
:1059B000E800CBCF84918093F1003196615071095A
:1059C0002F5F3F4FE6CF80917403882341F08530ED
:1059D00041F08091E80083FFBDCF81E0089582E02F
:1059E000089583E00895982F973028F08F70809362
:1059F000E90081E008959093E900242F762F50E08C
:105A0000981731F07091EC002091ED005091F0006A
:105A100021FD02C09F5FE8CF3091EB003E7F3093C5
:105A2000EB003091ED003D7F3093ED003091EB00C5
:105A300031603093EB007093EC002093ED005093B5
:105A4000F0002091EE0027FDE5CF80E008958091E1
:105A5000750387FF13C08091E80082FF06C0809124
:105A6000E8008B778093E80004C080917403811173
:105A7000F2CF0895809174038823D9F38091E800D0
:105A800080FFF8CF8091E8008E77ECCF2091E40082
:105A90003091E50095E6A9012091EC00822F8170FC
:105AA00020FF06C08091E80080FF06C080E00895D6
:105AB0002091E80022FD1AC080917403882389F0A8
:105AC000853089F08091EB0085FD0FC02091E400C6
:105AD0003091E50042175307F9F29150E1F684E066
